:020000040000FA
:10000000680A0020D5000000FB000000FD00000091
:1000100000000000000000000000000000000000E0
:10002000000000000000000000000000FF000000D1
:1000300000000000000000000101000003010000BA
:100040006902000065290000291C0000B51C0000A1
:10005000411D0000751D00003D21000041220000EF
:10006000C1270000F127000015280000A928000082
:100070002529000045290000C5250000F1250000C4
:1000800005010000050100001D1E00000501000023
:100090000501000005010000050100000501000048
:1000A0000501000005010000050100000501000038
:1000B00045230000CD0100000501000005010000FE
:1000C0000348854600F070F800480047F52B000013
:1000D000680A00200C480D4901600D4901600D4976
:1000E00001600D4A0D4911600D4A0E491160002151
:1000F00001600D4880470D480047FEE7FEE7FEE738
:10010000FEE7FEE7FEE70000000100505900000096
:10011000160000008800000024000050A55A0000CE
:10012000800300501F000000BD270000C100000038
:1001300030B50B46014600202022012409E00D467F
:10014000D5409D4205D31D469540491B2546954007
:1001500040191546521E002DF1DC30BD70B500244B
:100160002546002801DA01244042002901DA012550
:100170004942FFF7DDFFAC4200D04042002C00D0E6
:10018000494270BD03460B439B070AD102E008C9F0
:10019000121F08C0042AFAD203E00B780370491C2E
:1001A000401C521EF9D27047064C0125064E05E050
:1001B0002046E36807C82B4398471034B442F7D36E
:1001C000FFF782FFFC3000001C31000010B523480F
:1001D000006BC007C00F01280FD12148006800281C
:1001E00004D0204908681E49096888471B48006BED
:1001F000C008C000401C194908631848006B8007FC
:10020000C00F012811D11648001D0068002805D034
:10021000144948681249091D096888470F48006B4E
:10022000C008C000801C0D4908630C48006B4007E3
:10023000C00F012811D10A4808300068002805D0F5
:100240000849886806490831096888470348006BEF
:10025000C008C000001D0149086310BD00000E4029
:100260000C0000203801002010B50520000780692F
:100270001021884310300521090788610348006870
:10028000002802D001480068804710BD28000020E7
:10029000F8B504460D46022C01D3002D02D10020F2
:1002A000C043F8BD012611E02846704301462046B0
:1002B000FFF73EFF0746012F07D9012000068742BE
:1002C00003D2701E00063843EBE7761CFF2EEBD9F5
:1002D0000020C043E5E700000A4800680A49884258
:1002E0000ED90A48008800280AD008480088401E15
:1002F00007490880002005490880054800887047A4
:100300000020FCE7C400002010270000BE000020F1
:10031000C000002070B504460021084602F0E2FD4E
:100320000546082D05D0002C01D002F033FE002038
:1003300070BD0120FCE700000748406804218843A5
:10034000001D054948600548006840084000401C01
:1003500002490860704700000002005000C00050D1
:1003600001461A48C06800090001801C174AD06085
:100370001046C06810229043144AD0601046C068EE
:10038000202290432030114AD0601046416000691D
:1003900040084000401C1061BFF3608F00BF0B4855
:1003A0000069C007C00FFAD1084800684006C00FB6
:1003B000012808D105480068402290434030034A94
:1003C0001060034870470020FCE7000000C00050A8
:1003D0008188FFFF02461C48C068000900011A4BD3
:1003E000D8601846C06810239843174BD860184649
:1003F000C06820239843144BD86018464260002000
:1004000098601846006940084000401C1861BFF31E
:10041000608F00BF0C480069C007C00FFAD10A48BE
:1004200000684006C00F012808D107480068402333
:1004300098434030044B1860044870470248806875
:1004400008600020F9E7000000C000508188FFFF2D
:1004500002461A48C06800090001001D174BD86009
:100460001846C06810239843144BD8601846C068DB
:1004700020239843114BD8609000586018460069BB
:1004800040084000401C186100BF0C480069C007CC
:10049000C00FFAD1094800684006C00F012808D1F2
:1004A00006480068402398434030044B18600448D5
:1004B00070470248806808600020F9E700C00050DB
:1004C0008188FFFF02461A48C06800090001401CED
:1004D000174BD8601846C06810239843144BD86057
:1004E0001846C068202398432030114BD860184626
:1004F00042608160006940084000401C1861BFF301
:10050000608F00BF0A480069C007C00FFAD10848D1
:1005100000684006C00F012808D105480068402344
:1005200098434030024B1860024870470020FCE7B7
:1005300000C000508188FFFF10B502460020530123
:10054000024C1B198C00185110BD000000420050D5
:1005500070B504460A4D0121A14020461030012209
:1005600082401143286888432860022C03D102206E
:1005700001F044FD02E0032001F040FD002070BDC9
:10058000DC400050FFB581B004460D461E46244FA6
:10059000002D07D1396820461030012282401143D6
:1005A000396013E0012D05D139680120A0400143D5
:1005B00039600BE0022D09D10121A1402046103005
:1005C000012282401143386801433960144F3F1FB4
:1005D0000398002805D138680121A140884338607C
:1005E00004E039680120A04001433960022C09D1A0
:1005F0000C4806600221084601F028FD022001F0A7
:1006000011FD09E00748001D06600221032001F0EA
:100610001DFD032001F006FD002005B0F0BD000027
:10062000DC4000502000002002465001024BC01860
:100630008B00C058704700000042005000B50146D2
:100640000B4602F0A9F91E101A26323E4A4B4C4DB9
:100650004E4F5051606C7884909CA8B4C0C1C2C306
:10066000D7D8F3F4F1F0002005221207106350638D
:100670009063D063904A10601AE105200007C06BB8
:100680000122920310434022904305221207D063B7
:100690000EE105200007C06B032212031043302235
:1006A000904305221207D06302E105200007406B4A
:1006B0000F2212031043F0229043052212075063C9
:1006C000F6E005200007006B0F2212031043F02212
:1006D0009043052212071063EAE000BF00BF00BF8D
:1006E00000BF00BF00BF00BF05200007436BCA1C4E
:1006F0000120904083434A1F01209040034305207E
:1007000000074363D4E005200007C06B012292027A
:1007100090430422104305221207D063C8E005204D
:100720000007C06B0122D202904308221043052229
:100730001207D063BCE005200007C06B0122120342
:1007400090431022104305221207D063B0E0052029
:100750000007C06B01225203904320221043052260
:100760001207D063A4E005200007406BFF2201328E
:1007700010434008400005221207506398E005200E
:100780000007406B012252021043022290430522CF
:10079000120750638CE005200007C06B0322120291
:1007A00090430322104305221207D06380E0052006
:1007B0000007406B0322920210430C229043052253
:1007C0001207506374E000BF00BF00BF05200007A0
:1007D000806B0A46153A5300083303229A401043AF
:1007E0000A46153A530003229A4090430522120705
:1007F00090635DE000BF192909D12F4800680322EA
:1008000012029043032210432B4A10600AE01A2977
:1008100008D1294800680322920290430C22104319
:10082000254A106044E041E036E000E00BE005209E
:100830000007806BFF2212029043FF221043052223
:100840001207906300BF05200007006BFF22120211
:100850009043FF2210430522120710631046C06B1D
:100860000122D20210430822904305221207D063CE
:100870001046C06B032292039043C022104305220E
:100880001207D0630C480068032212039043302201
:100890001043094A10600BE00748006803229203E6
:1008A0009043C0221043044A106001E0034800BD99
:1008B00000BF0020FBE70000400000500189FFFF5F
:1008C00070B58401144D6319002A03D0012A01D0A8
:1008D000022A17D11D684E000324B440A5431D60B1
:1008E000012A06D11D684E000124B44025431D6035
:1008F00010E0022A0ED11D684E000224B4402543A8
:100900001D6007E0032A05D11D684E000324B44092
:1009100025431D6070BD00000040005010B5024628
:1009200001205301024C1B198C001851002010BDEE
:100930000042005010B543075B0F02F02DF8080588
:100940000607081B1C1D1E3500BF00BF00BF4B4A19
:10095000926843079C0E0123A3409A43002904D0C8
:1009600043079C0E0123A34000E000231A43434B9E
:100970009A6019E000BF00BF00BF414A9268430778
:100980005B0F1B1FDC000123A3409A43002906D004
:1009900043075B0F1B1FDC000123A34000E0002383
:1009A0001A43374B9A6000BF00BF1022104264D038
:1009B000831A01F0F1FF0805101C27333E4A5561E8
:1009C0002E4A403212692F4B1A4008231A432B4BF0
:1009D00040331A6150E0294A40321269294B1A40CB
:1009E0000123DB041A43254B40331A6144E0234AB8
:1009F00040325269234B1A4008231A431F4B40339D
:100A00005A6139E01D4A403252691E4B1A40012397
:100A1000DB041A43194B40335A612DE0184A403227
:100A20001269184B1A4008231A43154B40331A61B8
:100A300022E0134A40321269124B1A400123DB04B0
:100A40001A430F4B40331A6116E00D4A4032526987
:100A50000C4B1A4008231A43094B40335A610BE0F0
:100A6000074A40325269074B1A400123DB041A43FC
:100A7000034B40335A6100BF00BF10BD000004406B
:100A8000000014400F000F000C4880680F2109057A
:100A900008430A49886005200007C068032109054A
:100AA000084305210907C8600846C06803210905F5
:100AB000884305210907C860704700000002005004
:100AC00010B543075B0F01F067FF08050613141FFD
:100AD000202B2C3700BF194A536903221207934376
:100AE0000A070324240722401343144A536123E0D6
:100AF00000BF124A5269920092088B079B0F9B0716
:100B00001A430E4B5A6117E000BF0C4AD2693023DA
:100B10009A430B01302423401A43084BDA610BE05F
:100B200000BF064AD369C02293438A01C0242240F1
:100B30001343024AD36100BF00BF10BD0002005042
:100B4000F3B587B004460020029063075B0F01F005
:100B500023FF0805060C0D1213191A2000BFFC48CC
:100B600040698000800F029013E000BFF8484069A0
:100B7000800F02900DE000BFF548C0698006800F2D
:100B8000029006E000BFF248C0690006800F0290A4
:100B900000BF00BF0298002802D1EE48059008E08F
:100BA0000298022803D1EC480068059001E0EB4868
:100BB0000590234601F0F0FE180D0E0F1026272891
:100BC00029A4A4A4A4A4A4A4A4404C5965727E8B17
:100BD00097A400BF00BF00BFE1488068E100891C06
:100BE00001228A40014691430898C068002804D039
:100BF000E200921C0120904000E000200143D84810
:100C000081607DE000BF00BF00BFD6488068211F23
:100C1000CA00921C0121914088430899C9680029A3
:100C200005D0211FCA00921C0121914000E0002143
:100C30000843CC49886063E0C94840300069CA492C
:100C400008400899C9680843C5494031086157E020
:100C5000C34840300069C44908400899C96809047C
:100C60000843BF49403108614AE0BD48403040690F
:100C7000BD4908400899C9680843B94940314861ED
:100C80003EE0B74840304069B74908400899C96814
:100C900009040843B2494031486131E0B14840306D
:100CA0000069B14908400899C9680843AD49403115
:100CB000086125E0AB4840300069AB49084008991D
:100CC000C96809040843A7494031086118E0A548EC
:100CD00040304069A44908400899C9680843A149BF
:100CE000403148610CE09F48403040699E490840CF
:100CF0000899C968090408439A494031486100BF0E
:100D000000BF63075B0F01F047FE08050607081FD9
:100D10002021223D00BF00BF00BF914881686007CD
:100D2000820ED21C01209040814308980078002850
:100D300005D06007820ED21C0120904000E0002008
:100D40000143874881601DE000BF00BF00BF8548A8
:100D500080686107490F091FCA00D21C0121914018
:100D6000884308990978002907D06107490F091FAE
:100D7000CA00D21C0121914000E0002108437949BA
:100D8000886000BF00BF0898406800287AD1012021
:100D9000019063075B0F01F0FFFD080506101120AD
:100DA000212B2C3B00BF6E480068010A09020898FD
:100DB000C07801436A4801602AE000BF68480168C2
:100DC000FF20000281430898C0780002FF2212022F
:100DD00010400143624801601AE000BF61480068AA
:100DE000010A09020898C07801435E4801600FE0DB
:100DF00000BF5C480168FF20000281430898C0786A
:100E00000002FF221202104001435648016000BF59
:100E100000BF08998968089A5278514308466421AE
:100E2000FFF786F9461E63075B0F01F0B5FD080565
:100E30000607082C2D2E2F5800BF00BF00BF4848C2
:100E400040686107CA0E0721914088430899897854
:100E50004907490F6207D20E914008434049486054
:100E600008988068411E6007400F0C2250433C4A9E
:100E70008018C1606007400F0C214843114640189C
:100E800006612CE056E000BF00BF00BF3548406857
:100E90006107490F091F8A0007219140884308997B
:100EA00089784907490F6207520F121F920091403B
:100EB00008432C49486008988068411E6007400F2D
:100EC000001F0C225043274A8018C1606007400F62
:100ED000001F0C21484311464018066100BF00BFA7
:100EE0000898837801F058FD05070A0D10041300D7
:100EF000012001900BE00220019008E00420019005
:100F000005E00820019002E01020019000BF00BF22
:100F10000898C078411C0598FFF70AF900900199DC
:100F2000FFF706F90746089881683846FFF700F989
:100F300006904CE1089841680598FFF7F9F806908B
:100F4000012109070698884210D9002009B0F0BD98
:100F500000020050001BB700A000002000805101DB
:100F600000000440000014400F000F00012671042F
:100F70000698884202D20220019040E00698000CB8
:100F8000019001990698FFF7D3F8012109048842DE
:100F900003D90198401C80B20190FF2101310198D2
:100FA00088422CDD00270846019001990698FFF73A
:100FB000BFF8069006980002060E31460698FFF725
:100FC000B7F801210904884201D9701CC6B207E0B4
:100FD0003846791CCFB201218140B14200DD00E0EA
:100FE000F6E700BF791E01208840C6B2102E01DD51
:100FF0000020ABE7019906984843069000BF01998D
:101000000698FFF795F807463146FFF791F880B24A
:10101000049001990598FFF78BF831460090FFF78F
:1010200087F807460499FFF783F8069063075B0F7C
:1010300001F0B2FC080506111221222D2E3D00BF41
:1010400064480068000A00020199491EC9B20843B9
:10105000604908602BE000BF5E480068FF2109027C
:1010600088430199491E0902FF22120211400843D8
:10107000584908601BE000BF57480068000A00029A
:101080000199491EC9B20843534908600FE000BFE7
:1010900051480168FF20000281430198401E000270
:1010A000FF221202104001434B48016000BF00BF05
:1010B000042E0ED004DC012E07D0022E0FD106E044
:1010C000082E08D0102E0AD107E0042607E00026DB
:1010D00005E0012603E0022601E0032600BF00BF71
:1010E0001020044210D008988068401E85B20899EC
:1010F0008968089A5278514308466421FFF718F826
:10110000401E80B203900DE00498401E85B20899FD
:101110004978049A514308466421FFF71FF8401E9E
:1011200080B2039063075B0F01F036FC08050607E9
:10113000082728292A4F00BF00BF00BF2548416863
:101140006007C20E0720904081437007400F62077E
:10115000D20E904001431F4841606007400F0C21B0
:1011600048431C494018C5606007400F0C2250439B
:10117000184A80180399016127E000BF00BF00BF33
:10118000154840686107490F091F8A0007219140EF
:1011900088437107490F6207520F121F9200914056
:1011A00008430D4948606007400F001F0C21484369
:1011B00009494018C5606007400F001F0C225043CA
:1011C000054A80180399016100BF00BF00BF06985F
:1011D000BCE60000000004400000144010B50029E7
:1011E0002DD01022104216D00422104209D02B4AD2
:1011F000936B0446143C0122A2401343274A936395
:101200004AE0274A936B4407640F0122A24013432C
:10121000234A936340E00422104208D01F4AD36B54
:10122000041F0122A24013431C4AD36334E01C4A2A
:10123000D36B012282401343194AD3632CE010225E
:10124000104216D00422104209D0144A926B044670
:10125000143C0123A3409A43104B9A631CE0104AAC
:10126000936B4407640F0122A24093430C4A93639B
:1012700012E00422104208D0084AD36B041F012256
:10128000A2409343054AD36306E0054AD36B01228B
:1012900082409343024AD36310BD000040001440D3
:1012A00040000440084909684143084A516100214F
:1012B00091610521116100BF0449096901221204ED
:1012C0001142F9D070470000A400002000E000E0C7
:1012D00000487047001BB70070B500251148006931
:1012E0004007400F01D1104D12E00E480069400741
:1012F000400F022803D100F01DF8054608E0094818
:1013000000694007400F032801D1084D00E0084D57
:10131000044880690007000F441C21462846FEF758
:1013200007FF70BD00020050001BB700102700002F
:10133000008051017FB5002418486E462EC82EC685
:101340001748006A0003C00F012801D1154D00E0C5
:10135000154D1348006AC003C00F012801D10024B5
:1013600019E00F4A126A9204D20E911C0C4A126ABA
:10137000D205D20D921C6A431046FEF7D9FE0646EE
:101380000748006A0004800F80006A461158304602
:10139000FEF7CEFE0446204604B070BDDC300000EF
:1013A0000002005000805101001BB7000020064AD7
:1013B000106010460068C107C90F002901D003481A
:1013C00070470020FCE70000000100500296FFFF7C
:1013D00010B50446072C05DC032C01DD072C01DBCE
:1013E000012C01D10E4810BD0E480069C008C00094
:1013F0006107490F08430B4908610846C0680006A9
:10140000C00F09D00846C068802188438030054954
:10141000C8600348001DE6E701F080F90020E2E71C
:101420000396FFFF0002005010B50246134601F07C
:10143000B3FA0C8C8174675A4D403328071D1296FD
:101440004948C3690C20834388000C24204003438F
:101450004548C36185E04448C369C020834388018F
:10146000C024204003434048C3617AE03E48C3693A
:101470003020834308013024204003433A48C361AD
:101480006FE039484069800080088B079B0F9B07FD
:101490001843354B586164E0334843690320000723
:1014A0008343080703242407204003432E48436155
:1014B00057E02D48436903200006834308060324B0
:1014C000240620400343284843614AE026484369F4
:1014D0000720000583430805072424052040034313
:1014E000214843613DE020484369072000048343CD
:1014F000080407242404204003431B48436130E0D0
:101500001948436907200003834308030724240381
:10151000204003431448436123E0134843690720F4
:1015200000028343080207242402204003430E489C
:10153000436116E00C4843690C20834388000C2467
:1015400020400343084843610BE007484069800896
:1015500080008B079B0F1843034B586101E0034841
:1015600010BD00BF0020FBE7000200500496FFFF03
:101570000146072901DC012901D1074870470748C6
:10158000026938208243C8003823184002430348C8
:1015900002610020F2E700000396FFFF0002005006
:1015A00010B50246002A0CD115488369FF200004BB
:1015B00083430804FF24240420400343104883612C
:1015C0001CE0012A0CD10E4883690F2000028343DE
:1015D00008020F24240220400343094883610DE0E0
:1015E000022A09D106488069000900010B071B0F78
:1015F0001843034B986101E0024810BD0020FCE74E
:10160000000200500596FFFF30B523280AD1144B85
:101610005C6808239C43CB0008252B401C43104BDF
:101620005C601CE022280AD10D4B5C6804239C43BB
:101630008B0004252B401C43094B5C600FE0084BDA
:101640009A68002905D0012383401343044CA3600A
:1016500005E00123834014469C43014B9C6030BD50
:101660000002005010B50246002A04D0012A0CD016
:10167000022A20D114E01248006840084000CB073D
:10168000DB0F18430E4B186017E00D480368042069
:1016900083438800042420400343094803600CE08E
:1016A0000748036808208343C800082420400343F8
:1016B0000348036001E0034810BD00BF0020FBE7C2
:1016C000000200500396FFFF5920084A10601620C0
:1016D00010608820106010460068C107C90F0029FB
:1016E00001D0002070470248FCE7000000010050D4
:1016F0000196FFFF10B50446002C06D0012C15D032
:10170000022C24D0032C44D132E0002000F06EF8EB
:101710002248006801218906884340181F49086053
:1017200000201F4908601F49086034E0012000F0D4
:101730005DF81A48006A0121890688434018174954
:1017400008620020184908601849086023E0022058
:1017500000F04CF8164800680121890688434018BB
:10176000134908600020134908601349086012E01B
:10177000032000F03BF80E48006A012189068843E7
:1017800040180B49086200200C4908600C490860A9
:1017900001E00C4810BD00BF0020FBE70000014045
:1017A0004000002050000020440000205400002091
:1017B0000000114048000020580000204C0000208C
:1017C0005C0000200197FFFF10B502460B46104653
:1017D00000F060F8044606E0104600F05BF8001BDD
:1017E000984200D900E0F7E700BF10BD70B505468C
:1017F000002D06D0012D05D0022D04D0032D13D1CC
:1018000002E000BF00BF00BFA8000849085808490F
:10181000441820684903884320602946083148B2AB
:1018200000F0F6FB002070BD0248FCE7EC30000041
:10183000000001400197FFFF70B50446002C06D060
:10184000012C05D0022C04D0032C1AD102E000BFD9
:1018500000BF00BFA0000C4908580C494518286873
:1018600049038843401828602146083148B20221C4
:1018700000F028FC2146083148B200F0DDFB0020D2
:1018800070BD0348FCE70000EC30000000000140A0
:101890000197FFFF0146002906D0012907D0022940
:1018A00009D003290FD10AE00848006870470748AB
:1018B000001D0068FAE7054808300068F6E70348AD
:1018C0000C300068F2E70248F0E7000060000020FA
:1018D0000197FFFF0120044908600449086004499A
:1018E0000860044908607047300000203400002080
:1018F000380000203C000020FEB504460D46164688
:1019000000200190002C06D0012C4DD0022C7ED05E
:10191000032C7DD1E1E0A5480068012803D1A4484B
:101920000068002801D0A348FEBD0120A04908603E
:10193000A148806804218843001D9F4988600020D9
:101940009E4908600846806840084000401C886046
:10195000002705E0002114207843994A11507F1C8C
:10196000002FF7D000209749086008462430056012
:10197000002000F023FA29460090FEF789FC02902F
:101980000298401C02D18B48401ECDE7029800020D
:10199000000A8A4948600298000E01990843F1063E
:1019A000084386490860E6E087480068012803D1BB
:1019B00086480068002801D07E48B5E701208349A9
:1019C00008607D4880680821884308307A4988602B
:1019D00000207A4908620846806A40084000401C9E
:1019E0008862002706E0002114207843744A1432EC
:1019F00011507F1C002FF6D000207249091D08608D
:101A0000084624300560012000F0D8F901E019E013
:101A1000AEE029460090FEF73BFC02900298401C85
:101A200002D16448401E7FE702980002000A634921
:101A300048620298000E01990843F10608435F4985
:101A4000086298E062480068012803D16148006894
:101A5000002801D0574867E701205E4908605648D2
:101A600080681021884310305349886000205A490B
:101A700008600846806840084000401C88600027D5
:101A800006E00021142078434D4A283211507F1C73
:101A9000002FF6D000204B4908310860084624305A
:101AA0000560022000F08AF929460090FEF7F0FB5D
:101AB00002900298401C02D13E48401E34E7029832
:101AC0000002000A444948600298000E0199084348
:101AD000F1060843404908604DE04048006801288D
:101AE00003D13F480068002801D032481CE701209C
:101AF0003B490860304880682021884320302E49C7
:101B000088600020344908620846806A4008400026
:101B1000401C8862002706E0002114207843284AF0
:101B20003C3211507F1C002FF6D0002025490C318B
:101B30000860084624300560032000F03FF929467C
:101B40000090FEF7A5FB02900298401C02D11948B4
:101B5000401EE9E602980002000A1F494862029806
:101B6000000E01990843F10608431B49086202E090
:101B70001048801ED8E600BF022E14D1002C06D0DB
:101B8000012C05D0022C04D0032C09D102E000BFA7
:101B900000BF00BF21460F31C8B2FEF74FFD00BFA6
:101BA0000448801EC0E60020BEE600003000002091
:101BB000400000200397FFFF00020050000001409A
:101BC000AC01002060000020340000204400002010
:101BD0003800002048000020000011403C00002098
:101BE0004C0000200246002A06D0012A05D0022A15
:101BF00004D0032A0FD102E000BF00BF00BF900055
:101C0000064B1858064BC11808689B039843C01828
:101C10000860002070470348FCE70000EC3000003B
:101C2000000001400197FFFF10B50420044908623D
:101C300004480068002802D002480068804710BDB0
:101C4000C04000502000002010B514480088002833
:101C500022D11348007800281ED01248006812498B
:101C600009884900114A505200200E4908600E4868
:101C7000008800280BD102210320FEF7D5FC0028A4
:101C800002D10B49087002E001200949087006489A
:101C90000088401C0449088010BD0000C0000020DE
:101CA000BC000020C4000020BE000020FC01002079
:101CB000BD00002010B508200449086204480068EF
:101CC000002802D002480068804710BDC040005084
:101CD0002400002010B50446FFF7F6FC2046FEF76E
:101CE0003FFBFFF763FB10BD0D480E4A1268106002
:101CF000002110E00B480068006800695C2801D1F1
:101D0000084670470748006800681830054A12689E
:101D10001060481CC1B20429ECDBFF20F1E7000091
:101D2000FC050020CC0000200146032901DD002035
:101D3000704718204843014A8018F9E7FC05002045
:101D400070B50A48046A09484030056A07480462C9
:101D500006484030056206480068002804D029463D
:101D60002046034A1268904770BD000000400050B2
:101D70001800002070B50F48046A0E484030056A0C
:101D80000C488030066A0C212846884305460948DD
:101D90000462084840300562064880300662064802
:101DA0000068002805D0324629462046024B1B68B1
:101DB000984770BD804000501C00002070B504465C
:101DC0000026002C05D0012C03D0022C01D0032CBE
:101DD00018D10F484169A0000830C1404D076D0F70
:101DE000002D03D1FFF774FA06460EE0022D03D151
:101DF000FFF772FA064608E0072D01D1054E04E010
:101E0000054870BD0448401EFBE73046F9E7000076
:101E100000020050008051010297FFFF10B51B48DF
:101E2000C4684069C007C00F0FD018484069400817
:101E30004000401C154948611548C068002824D05E
:101E40001348C168204688471FE0002C0AD0382C70
:101E500011D10F484068002803D00D484168204642
:101E6000884711E00A488068002803D00848816844
:101E70002046884708E006480068002803D0044848
:101E800001682046884700BF00BF10BD0000024027
:101E900044010020F7B582B004460D46002C02D163
:101EA000401E05B0F0BD2668002E04D104988002C3
:101EB0001F2109034618002707E0304600F074FF91
:101EC000B9006850361D781C87B20D490968088929
:101ED000C117890F09188910B942EEDC1827F817C5
:101EE000800FC0198210FF200130801A8000411934
:101EF0003A4620460197FEF745F9A068D1E7000071
:101F0000CC000020FFB585B004460D461646002CD7
:101F100002D1401E09B0F0BD20697A2802D100200C
:101F2000C043F7E76560A6600020E0607A2020618A
:101F300018200190019FF917890FC9198910FF22F4
:101F40000132511A890048193A462146FEF71AF91A
:101F5000206804900498002805D1089880021F2169
:101F6000090340180490606903902068FFF7B2FEEF
:101F70006169C81FFF38FA38FFF7ACFE206804908B
:101F8000002001900EE001988000285802900299EC
:101F9000049801F097F80498001D04900198401CE3
:101FA00080B20190054909680889C117890F09188D
:101FB0008A1001998A42E6DCACE70000CC000020E0
:101FC000F8B504460D461646601C08D0E0B2FFF78F
:101FD000ABFE0746E3B232462946FFF793FF2046A1
:101FE000F8BD70B504460D462046FFF79DFE064637
:101FF00022462946FFF74EFF70BD0000C206D20EF2
:1020000001219140014A11607047000080E100E029
:10201000C206D20E01219140014A116070470000B2
:1020200080E100E0C206D20E01219140014A116018
:102030007047000000E100E0C206D20E012191408D
:10204000014A11607047000000E100E010B500286F
:1020500019DA1A4A03071B0F083B9B089B00D2584A
:102060008307DC0EFF23A3409A438B071B0E8407D4
:10207000E40EA3401A43114B0407240F083CA408A4
:10208000A4001A5118E00E4A03231B02D218830839
:102090009B00D3588207D40EFF22A24093438A07A5
:1020A000120E8407E40EA2401343054A03242402BF
:1020B00012198408A400135110BD00001CED00E0AB
:1020C00000E100E010B5002819DA1A4A03071B0FD7
:1020D000083B9B089B00D2588307DC0EFF23A340DC
:1020E0009A438B071B0E8407E40EA3401A43114B3F
:1020F0000407240F083CA408A4001A5118E00E4A53
:1021000003231B02D21883089B00D3588207D40EE6
:10211000FF22A24093438A07120E8407E40EA240D6
:102120001343054A0324240212198408A4001351FE
:1021300010BD00001CED00E000E100E070B53C487F
:102140004468E007C00F09D0012039494860394888
:102150000068002802D037490868804702200442FE
:1021600008D03349486033488068002802D031499C
:10217000886880470420044208D02D4948602D48D3
:102180000069002802D02B490869804708200442D2
:1021900008D02749486027488069002802D025498F
:1021A00088698047224805694669102005420CD09D
:1021B0001F480069204908401D4908611D484068C2
:1021C000002802D01B4948688047012000050542CD
:1021D0000CD017480069194908401549086115488D
:1021E000C068002802D01349C86880471020064202
:1021F0000CD00F484069104908400D4948610D480E
:102200004069002802D00B49486980470120000539
:1022100006420CD006484069084908400449486114
:102220000448C069002802D00249C869804770BDCF
:1022300040000440540100201F000F000F001F0049
:1022400070B53C484468E007C00F09D00120394907
:10225000486039480068002802D03749086880473C
:102260000220044208D0334948603348806800287F
:1022700002D03149886880470420044208D02D49A3
:1022800048602D480069002802D02B490869804722
:102290000820044208D02749486027488069002860
:1022A00002D025498869804722480569466910207F
:1022B00005420CD01F480069204908401D490861AB
:1022C0001D484068002802D01B494868804701200B
:1022D000000505420CD01748006919490840154906
:1022E00008611548C068002802D01349C8688047B3
:1022F000102006420CD00F484069104908400D4993
:1023000048610D484069002802D00B494869804760
:102310000120000506420CD00648406908490840E3
:10232000044948610448C069002802D00249C869CC
:10233000804770BD40001440740100201F000F0052
:102340000F001F0010B50748006840218843403047
:102350000449086004480068002802D00248006868
:10236000804710BD000200502C00002010B5002155
:10237000262000F0B7FD0446204610BD38B50446BF
:1023800000BFFFF7A1F969462046FEF761F8FFF7A5
:102390000DF8009838BD0000FEB504460D46002635
:1023A000052D01D00198FEBD267836026078861989
:1023B00016480068864201D00098F4E7A078042807
:1023C00023D1E078002820D12779032F04DD442091
:1023D0000F49C870087109E00E49384600F02EF91F
:1023E000C7B20B48C770381209490871074800681E
:1023F0000004000E06490870044800684870042074
:1024000088700521024800F0D7FDCCE708000020C5
:1024100000000020FC010020002002490880024941
:1024200008807047C0000020BE00002010B500F0FA
:10243000CFFA0021862000F055FD0121872000F011
:1024400051FD6421892000F04DFD05218A2000F016
:1024500049FDEA218B2000F045FDEA218C2000F0A7
:1024600041FDF4218D2000F03DFD2C21F02000F0F5
:1024700039FD40219D2000F035FD1B219C2000F0FE
:1024800031FDD021A02000F02DFD0021A12000F081
:1024900029FD9D21A22000F025FD4921A32000F067
:1024A00021FD0021A42000F01DFD3421A52000F015
:1024B00019FD5021AA2000F015FD4E21EE2000F05C
:1024C00011FDA521EF2000F00DFD8C21B02000F0C2
:1024D00009FDFF21B22000F005FD4221B32000F0EC
:1024E00001FD2021B52000F0FDFC2D21B62000F0DB
:1024F000F9FCD421B72000F0F5FC0021B82000F051
:10250000F1FC0021B92000F0EDFC7321BA2000F0AD
:10251000E9FC6321BB2000F0E5FC6B21BC2000F04E
:10252000E1FC6A21BD2000F0DDFC0A21BE2000F0A4
:10253000D9FC7321BF2000F0D5FC6321C02000F03E
:10254000D1FC6B21C12000F0CDFC6A21C22000F03B
:10255000C9FCFF21C32000F0C5FCFF21C42000F00E
:10256000C1FCFF21C52000F0BDFCFF21C62000F00A
:10257000B9FC0721ED2000F0B5FC0021F92000F0A6
:10258000B1FC0021FA2000F0ADFC2221F12000F086
:10259000A9FC3021F22000F0A5FC0021F32000F07E
:1025A000A1FC0021F42000F09DFC5321F52000F057
:1025B00099FC5721F62000F095FC8021F72000F0CF
:1025C00091FC10BD10B5084800680121090488433A
:1025D00040180549086005484068002803D0034AB0
:1025E00090685168884710BD0000034094010020A6
:1025F00010B50848006801210904884340180549BE
:10260000086005480069002803D0034A5069116931
:10261000884710BD0040034094010020F8B50446EF
:102620000D46FFF761FB07462A462146FFF7C8FC27
:10263000064600F01DFA3046F8BD000070B50446AD
:102640000D460020FFF756F829462046FFF7C9FC43
:1026500086B200F00DFA0D48864203D03146284676
:1026600000F018F801210846FDF766FF7D21C9003A
:102670000020FFF7A9F801210846FEF74FF90449A9
:102680000020FFF7A1F8304670BD0000FFFF0000FA
:10269000B80B0000F8B50C46012533E01D48007862
:1026A000002816D10121FEF745F968001A490E5A93
:1026B00031460020FFF788F800210846FEF73AF976
:1026C000681C400014490F5A39460020FFF77CF877
:1026D00016E000210846FEF72DF968000E490E5A53
:1026E00031460020FFF770F801210020FEF722F9A3
:1026F000681C400008490F5A39460020FFF764F86B
:10270000A81C85B2601C8542C8DB00210846FEF784
:1027100011F9F8BDBD000020FC01002070B5204873
:10272000006945076D0F052D00D90425022D03D042
:10273000A8001C490C581EE01948006A0004860FC6
:10274000012E00D9761E164A126A1203D20F01D04A
:10275000154A00E0154A124B1B6ADB05DB0D9B1C7A
:10276000104658430E4A126A9204D20E911CFDF78D
:10277000DFFCF04004460A4880690007000F411C56
:102780002046FDF7D5FC0A4908600A490848006858
:102790004A108018FDF7CCFC0749086070BD0000A6
:1027A00000020050A800002000805101001BB7006B
:1027B000A000002040420F00A4000020704700004D
:1027C0000848806840084000401C06498860064868
:1027D0000068401C0449086004480068401C034924
:1027E0000860704700000140C40000206000002025
:1027F0000648806A40084000401C0449886204483A
:102800000068401C02490860704700000000014059
:102810006400002010B52048806840084000401C3B
:102820001D4988601D480068401C1C4908601C4800
:10283000006800282FD000242BE0142060431949A1
:102840000858002824D01420604340188068411E96
:1028500014206043134A801881601420604311469D
:1028600040188068002813D1142262430B46D21806
:10287000106914226243D218D1688847142060433B
:1028800008494018416814206043064A8018816056
:10289000641C012CD1DB10BD000011406800002039
:1028A00058000020D401002010B51148806A40086B
:1028B0004000401C0E4988620E480068401C0D49CB
:1028C00008600D480068002810D00B488068401E42
:1028D0000949886008468068002807D10A461069BF
:1028E000D1688847044840680349886010BD0000EB
:1028F000000011406C000020E801002010B50446E3
:10290000002C05D001200649087000F0CBF805E046
:102910000020034908700220FDF71AFE10BD0000D8
:10292000BC00002010B50548C469054800680028AF
:1029300003D0204602490968884710BD00000540C1
:102940009800002010B50548C469054800680028B3
:1029500003D0204602490968884710BD0000154091
:102960009C00002010B50A4800688006C40F084883
:102970000068082188430830054908600548006858
:10298000002803D0204603490968884710BD00008D
:10299000004000409400002030B47446641E257846
:1029A000641CAB4200D21D46635D5B00E31830BC83
:1029B000184702E008C8121F08C1002AFAD1704760
:1029C0007047002001E001C1121F002AFBD17047AF
:1029D00010B50021032000F085FA0021042000F04A
:1029E00081FA10BD10B5FEF76FFEFDF7A5FCFEF7EE
:1029F000DDFC10BD10B5002202210320FDF760FFB1
:102A0000012200210420FDF75BFF002203210220A8
:102A1000FDF756FF002203210846FDF751FF012272
:102A200004210220FDF74CFF012205210220FDF7C1
:102A300047FF012206210220FDF742FF0122072164
:102A40000220FDF73DFF002211461046FDF738FF3A
:102A5000002202211046FDF733FF012211461046E5
:102A6000FDF72EFF012200211046FDF729FF10BDC2
:102A700010B501210220FEF7C7FD00210220FEF75C
:102A8000D3FCFEF727FF012205490020FEF734FFA3
:102A90000020FEF7D1FE0020FFF7A4F810BD0000D3
:102AA000A086010010B5002202210846014BFDF767
:102AB00069FD10BD491C00001FB5FDF7E5FF0321AE
:102AC0000020FDF7FDFF01206B4618703220587082
:102AD000012003900848019069460020FEF730F875
:102AE00001210020FEF77AFB1920FDF7A7FD002148
:102AF0000846FDF71FFF1FBD709400001C491D4ACA
:102B000012681160012109031A4A12685160891084
:102B1000184A12681181002026E081021F22120348
:102B20008918154A126811600021134A1268516011
:102B300001218902104A1268916000210E4A126830
:102B4000D1605C210C4A12681161411C89021F226C
:102B500012038918084A1268516107490968183137
:102B6000054A1160411CC8B20428D6DB704700003A
:102B7000FC050020CC000020C800002010B508484B
:102B8000FEF790FB07210220FDF7D6FC0548FEF773
:102B900089FBFFF74BFC00218E2000F0A3F910BD4C
:102BA00010270000400D030070B5002400BFFEF7A1
:102BB0008BFD01210020FEF755FD002814D1FEF702
:102BC00007FC01210220FEF7EBFCFEF785FB054622
:102BD00004E0641C0648844200D104E00320FEF7B0
:102BE000C7FC0028F5D100BFFEF7E0FB70BD000078
:102BF0003075000070B50024FFF7D6FFFFF7FAFE2E
:102C0000FFF75AFFFFF7EEFE0220FFF7B7FB5E4922
:102C1000086008460068000C086008460068000E5E
:102C20005A490870584800680002000E487056481B
:102C300000680004000E887053480068C870FFF7F1
:102C40009DFF00F0BDF8FFF759FFFFF711FFFFF7F9
:102C500029FF4D4800680004000E4C4908704A489E
:102C60000068487004208870AA20C8700871052187
:102C7000464800F0A1F985E00020FDF74BFB012854
:102C80000DD1434800F0C6F8C6B2002E07DD002083
:102C9000FEF730FD31463E48FFF77EFB002602215D
:102CA0000020FDF7C1FC00281FD1FEF723FD012104
:102CB0000846FDF741FC344800680004000E334923
:102CC000087031480068487004208870AA20C870D5
:102CD000087130490120FFF7B1FC05212B4800F0B5
:102CE0006BF901210846FDF719FE00210846FDF7A2
:102CF0009BFC00283FD100210120FDF71DFC012095
:102D0000FFF7FCFDFDF7E8FA00283BDD0020FEF7A9
:102D1000F1FC214801881F48FFF780FC0546FF2D84
:102D200016D0002410E001210846FDF705FC1B49E0
:102D30000020FEF749FD01210846FDF7EFFD174988
:102D40000020FEF741FD641C681C8442EBDB0FE0B1
:102D500001210846FDF7F0FB11490020FEF734FD84
:102D600001210846FDF7DAFD0E490020FEF72CFD93
:102D7000FFF752FB06E000210120FDF7CFFD002008
:102D8000FFF7BCFD78E700000800002000000020ED
:102D9000D4000020FC010020C000002050C300002F
:102DA000881300001027000038B50446FEF78CFC9D
:102DB00069462046FDF70EFBFEF7F8FA009838BD8D
:102DC00010B500BF0121872000F08CF800210720FA
:102DD00000F088F804460021022000F083F8044641
:102DE00002218E2000F07EF80321882000F07AF87E
:102DF0000021882000F076F80521872000F072F885
:102E00000021072000F06EF804460221852000F022
:102E100069F810BD70B5044603210846FDF704FCAF
:102E2000002832D1FFF7A2FA0646FFF7D1FD0021B4
:102E30004B2000F057F8054605210220FDF77CFBEA
:102E400006210220FDF778FB7F2000F020F8002605
:102E500005E0002000F01BF8A055701CC6B2AE4281
:102E6000F7DB06210220FDF759FD0121872000F044
:102E700039F80021032000F035F80021042000F08B
:102E800031F8FFF79DFF68B270BD0020FCE770B518
:102E90000446002522E08020044204D004210220C0
:102EA000FDF73CFD03E004210220FDF745FB600631
:102EB000040E05210220FDF731FD03210220FDF75C
:102EC000B3FB002802D00120044301E0FE200440AF
:102ED00005210220FDF730FB681CC5B2082DDADBA6
:102EE000204670BD70B504460D4605210220FDF751
:102EF00023FB06210220FDF71FFB002617E08020A0
:102F0000044204D004210220FDF708FD03E004215F
:102F10000220FDF711FB6006040E05210220FDF7DB
:102F2000FDFC05210220FDF707FB701CC6B2082E30
:102F3000E5DB002622E08020054204D004210220A7
:102F4000FDF7ECFC03E004210220FDF7F5FA68062A
:102F5000050E05210220FDF7E1FC03210220FDF70B
:102F600063FB002802D00120054301E0FE2005405C
:102F700005210220FDF7E0FA701CC6B2082EDADB4C
:102F800006210220FDF7CAFC05210220FDF7C6FC40
:102F9000284670BD07480078012803D10020054964
:102FA000087006E003480078002802D1012001499A
:102FB00008707047D0000020F0B585B004460D467B
:102FC00000200290012001900020009000BF042109
:102FD0008520FFF787FF01218720FFF783FF00216E
:102FE0000720FFF77FFF074600210220FFF77AFF47
:102FF000074601218E20FFF775FF03218820FFF788
:1030000071FF00218820FFF76DFF4021B420FFF7FA
:1030100069FF2946BE20FFF765FF002605E0A15D98
:10302000FF20FFF75FFF701CC6B2AE42F7DB09213D
:103030008720FFF757FF1BE000210320FFF752FF17
:10304000029004210298084002900298002801D0C2
:10305000002001907D20C000FEF724F90098401C5C
:1030600080B2009016490098884201D1002001905A
:1030700001980128E0D000980146FF395F390AD154
:1030800001218720FFF72EFFFFF7D0F9FFF798FE09
:10309000002005B0F0BD00210320FFF723FF0390BF
:1030A00000210420FFF71EFF039001218720FFF776
:1030B00019FFFFF7BBF9FFF783FE0120E9E70000E6
:1030C0008A02000070B504460D46FEF7FDFA294657
:1030D0002046FDF7F7F9FEF769F970BD0100000021
:1030E00002000000020000000400000000000000D8
:1030F0002000000000001000200010001C31000023
:1031000000000020D4000000B2290000F0310000CF
:10311000D400002094090000C22900000000000033
:10312000000000000000000000000000000000009F
:10313000000000000000000000000000000000008F
:10314000000000000000000000000000000000007F
:10315000000000000000000000000000000000006F
:10316000000000000000000000000000000000005F
:10317000000000000000000000000000000000004F
:10318000000000000000000000000000000000003F
:10319000000000000000000000000000001BB7005D
:1031A000000000000000000000000000000000001F
:1031B000000000000000000000000000008051013D
:1031C00016000000001BB700000000000080510145
:1031D00010270000008051010000000000000000E6
:1031E00000000000FC0500205C060020000000003C
:04000005000000D522
:00000001FF
